:100000000C943A000C9457000C9457000C94570031
:100010000C9457000C9457000C9457000C94570004
:100020000C9457000C9457000C9457000C945700F4
:100030000C9457000C9457000C9457000C945700E4
:100040000C9457000C9457000C9457000C945700D4
:100050000C9457000C9457000C9457000C945700C4
:100060000C9457000C9457000C9457000C945700B4
:100070000C94570011241FBECFEFD4E0DEBFCDBFDC
:1000800013E0A0E0B1E0E0E2FCE002C005900D92D8
:10009000A433B107D9F723E0A4E3B3E001C01D9274
:1000A000AB34B207E1F70E943B050C940E060C94AA
:1000B0000000CF93DF9300D0CDB7DEB789831A82DB
:1000C000CE0101960E9461040F900F90DF91CF91B5
:1000D0000895E1E6F0E080E880831082A89584B777
:1000E000877F84BFE0E6F0E08081886180831082B2
:1000F00008951092800084E0809381001092850022
:100100001092840008958091840090918500089554
:10011000AC0180918400909185009C01241B350BDB
:10012000283E3340B0F70895209184003091850037
:10013000820F931F0C948800853098F4673088F400
:1001400021E030E001C0220F6A95EAF7E82FF0E0E5
:10015000EB5CFC4F922F9095808189234111822B7B
:1001600080830895853080F4673070F4E82FF0E0E4
:10017000EB5CFC4F81E090E001C0880F6A95EAF7E4
:100180009081982381E009F480E008956091340320
:10019000E62FF0E0EB5CFC4F80810E94140180911F
:1001A00034038F5F853018F48093340308951092E0
:1001B00034030895E5E3F3E0108211821282138282
:1001C000148208950E94F2000C94DA009C01FC0154
:1001D000FF2784A1832B84A395A1892F832B85A33B
:1001E00081E00895CF93DF93CCE1D3E08991999199
:1001F0000E94E60083E0CA32D807C1F783E090E4AA
:100200000E94E60080E090E80E94E60083E090E132
:100210000E94E60083E090E80E94E60083E090E21E
:10022000DF91CF910C94E600E0913A03F0E0EE0FFD
:10023000FF1FEE5EFC4F20813181F901FF2795A160
:10024000932B95A3ECE1F3E097E020813181D90174
:10025000BB2795962C91959780FF03C0309523235B
:1002600001C0232B95962C9386959150329691112F
:10027000ECCFE62FF0E0EE0FFF1FEE5EFC4F80812B
:100280009181FC01FF2785A19095892385A3609327
:100290003A0308956230710511F168F46130710517
:1002A00051F5FC01FF2724A1892F8095922F9823D7
:1002B00094A395A112C06330710541F064307105BB
:1002C000D1F4FC01FF2784A1892B0FC0FC01FF277B
:1002D00084A1892B84A385A19095892309C0FC0161
:1002E000FF2724A1892F8095822384A385A1892BB0
:1002F00085A381E0089580E00895E82FF0E0EE0FF7
:10030000FF1FE55CFC4F8081882321F0918181E013
:10031000892702C080E090E081700895E82FF0E026
:10032000EE0FFF1FE55CFC4F8081811102C08181CF
:1003300002C080E090E081700895E82FF0E0EE0FB9
:10034000FF1FE55CFC4F80810895E82FF0E0EE0F81
:10035000FF1FE55CFC4F908181E0892708956F9233
:100360007F928F929F92AF92BF92CF92DF92EF9245
:10037000FF920F931F93CF93DF9300D0CDB7DEB7DB
:100380002BE3622E23E0722E3AE2C32E33E0D32E0B
:10039000812C46E0942EF30180818183F601019146
:1003A00011916F015801BB24F50184A1E12EFF24B6
:1003B00025A130E02E213F2141E0232B09F440E02C
:1003C00090E08E219F21892B29F0411108C023E064
:1003D00030E00AC0411106C021E030E005C024E051
:1003E00030E002C022E030E064E070E0C801298320
:1003F0003A830E944A0162E070E0C8010E944A010B
:10040000892D8A95F1F7F50183A190E0E822F92280
:1004100081E029813A81EF2809F080E0F3018083AF
:10042000B901C8010E944A018394F2E06F0E711C69
:1004300085E08812B0CF0F900F90DF91CF911F9180
:100440000F91FF90EF90DF90CF90BF90AF909F9073
:100450008F907F906F9008950895009789F0FC0128
:100460002381621B67FD09C0062E000C770B2481D7
:1004700030E081E0621773070CF080E0817008952E
:1004800080E00895CF93DF93FC01A62F822F309751
:1004900071F16181461758F59281291740F59381D2
:1004A000A91BA7FD24C00A2E000CBB0BC481D0E001
:1004B000AC17BD07E4F40E949005480F658170E019
:1004C000CD010E9499050696242F269526952695FE
:1004D000E80FF91FE20FF11D9081892F90E047701E
:1004E00002C0959587954A95E2F7817001C080E03A
:1004F000DF91CF910895CF93DF93EC010E947900B3
:100500009E0140E050E062E17AE780E090E00E94E6
:10051000BE053093480320934703DF91CF910895A0
:1005200080914503909146030E94880020914503E5
:10053000309146038091470390914803820F931FA7
:100540009093460380934503089541E0611101C0F3
:1005500040E0692F0C949C00692F0C94B20041E09C
:10056000611101C040E0692F0C949C004F925F9292
:100570006F927F928F929F92AF92BF92CF92DF92B3
:10058000EF92FF920F931F93CF93DF931F92CDB7FC
:10059000DEB7862E942E5C01E62EF72E262F660FF0
:1005A000330B281B310987FD3395072F072E000CCD
:1005B000110B091B110997FD139537FF03C0772411
:1005C0007A9402C07724739417FF03C066246A9458
:1005D00002C066246394290137FF03C051944194FB
:1005E000510817FF03C011950195110940165106D6
:1005F000A4F06201D594C794F92EA81421F1692DB5
:100600008A2D9F2D0E94AF02C01AD10AD7FE03C0C7
:10061000C40CD51CF60CA70CF0CF6801D594C79478
:10062000E82EB71681F0692D8E2D9B2D79830E94BF
:10063000AF02C418D5087981D7FE03C0C00ED11E01
:10064000E70CB60CEECF692DC7010F90DF91CF916B
:100650001F910F91FF90EF90DF90CF90BF90AF90E0
:100660009F908F907F906F905F904F900C94AF020F
:10067000FF920F931F93CF93DF93D82FF92E162F4E
:10068000C72F042F792F0E94B602402F6D2F7C2F89
:100690008D2F9F2D0E94B602402F612F7C2F812F1E
:1006A0009F2D0E94B602402F612F7C2F8D2F9C2FF3
:1006B0000E94B602DF91CF911F910F91FF90089594
:1006C0000E94DA00E0E0F1E0118A14860895DF92DA
:1006D000EF92FF920F931F93CF93DF93D82E7B015E
:1006E000162F0F2D8091020190910301C0E0019718
:1006F000A1F50F2D0C1BE0910801F09109018181FA
:10070000C817C0F4D0E08091080190910901FC0164
:100710002281D21768F42D2F4C2F6D2D0E9442029A
:10072000682F8D2F8E0D902F0E94AF02DF5FEBCFD1
:10073000CF5FDFCFC0E0E0910801F0910901828135
:10074000C81740F460E08C2F8E0D902F0E94AF02EE
:10075000CF5FF1CF015031C0CF5F1C2F1E0DE09154
:100760000801F09109018181C817B0F4D0E08091AF
:10077000080190910901FC012281D21768F72D2F01
:100780004C2F6D2D0E944202682F812F9D2F9F0DAF
:100790000E94AF02DF5FEBCFC0E0E0910801F09173
:1007A00009018281C81740F460E0812F9C2F9F0DC2
:1007B0000E94AF02CF5FF1CF1F5F812F902FDF919B
:1007C000CF911F910F91FF90EF90DF9008951F93AD
:1007D000CF93DF93182FEC018C2F811B99919923D4
:1007E00051F0892F0E946703BC018C2F811B65305B
:1007F00014F477FFF1CFDF91CF911F9108950F93FC
:100800001F93CF93DF93EC019B0110920C01409357
:100810000D011092100100910801109109010115BC
:10082000110509F449C0F8018181609106017091B8
:10083000070190E00E949905BC0180910A01909106
:100840000B010E94AA05CB016AE070E00E949905A5
:1008500090930F0180930E013093050120930401C2
:1008600040E250E0BE0181E191E00E94FF058091ED
:100870000001909101010197F9F4FE01019000201F
:10088000E9F7CF010197F8019181692F70E06F5F5F
:100890007F4F8C1B0E949005815020910201309166
:1008A00003012130310511F095E001C097E0981760
:1008B00018F48EEF80931001DF91CF911F910F916B
:1008C000089520910201309103012130310511F08A
:1008D00070E001C076E04FEF60E00E94FF030895F2
:1008E00090E0909307018093060108959093010191
:1008F000809300010895909303018093020108956D
:100900009093090180930801089580914903909183
:100910004A03019690934A038093490320910E0164
:1009200030910F018217930708F469C010924A03AF
:1009300010924903E0910C01F0E0E050FF4F8189F3
:1009400081110AC080910D01823008F458C0815095
:1009500080930D0110920C0180910C0190E0FC013C
:10096000E050FF4F2189222309F449C04091000142
:1009700050910101209110014115510521F04130A4
:10098000510599F024C0211122C060910401709199
:1009900005018F5E9E4F0E94E70390E001979091C2
:1009A0000C01890F80930C0112C0609104017091B9
:1009B000050140910201509103014130510511F4AC
:1009C000720F01C0621B8F5E9E4F0E94E7038091F1
:1009D00010018F5F80931001082E000C990BE0919D
:1009E0000801F0910901218130E0281739073CF412
:1009F0001092100180910C018F5F80930C010C9478
:100A0000C600CF93DF93C0E0D1E09B878A870E9426
:100A1000E20084E190E09F838E83DF91CF910C947C
:100A20006003CF93DF9300D0CDB7DEB789831A82FE
:100A3000CE0101960E9461040F900F90DF91CF913B
:100A400008956230710519F06F5F7F4F02C060E05A
:100A500070E0FC01E60FF71F8081089561157105B4
:100A600019F06150710902C062E070E0FC01E60F0C
:100A7000F71F80810895CF93DF9300D01F92CDB7E9
:100A8000DEB780E5898383E58A8382E58B830E94D4
:100A9000690084EF91E00E94010581E391E00E94EA
:100AA00080048AE00E9470040E942C0284EF91E08E
:100AB0000E947B0200E010E080E5F82E0E94900288
:100AC0000E9485040E94AF0180E00E947D0188237E
:100AD00079F00230110519F00F5F1F4F02C000E0DE
:100AE00010E0E1E0F0E0EC0FFD1FE00FF11FF080FF
:100AF00082E00E947D01882379F00115110519F02B
:100B00000150110902C002E010E0E1E0F0E0EC0F5A
:100B1000FD1FE00FF11FF0808F2D0E945900CECFF6
:100B2000002480FD060E660F11F08695D1F7802D0A
:100B300008950024552704C0080E591F880F991FD7
:100B4000009729F076956795B8F37105B9F7802D70
:100B5000952F0895AA1BBB1B51E107C0AA1FBB1FFD
:100B6000A617B70710F0A61BB70B881F991F5A9539
:100B7000A9F780959095BC01CD010895052E97FBAE
:100B80001EF400940E94D50557FD07D00E94DD0594
:100B900007FC03D04EF40C94D50550954095309544
:100BA00021953F4F4F4F5F4F0895909580957095D9
:100BB00061957F4F8F4F9F4F0895A1E21A2EAA1B78
:100BC000BB1BFD010DC0AA1FBB1FEE1FFF1FA217FD
:100BD000B307E407F50720F0A21BB30BE40BF50BFA
:100BE000661F771F881F991F1A9469F76095709583
:100BF000809590959B01AC01BD01CF010895FB014B
:100C0000DC014150504048F001900D920020C9F79E
:100C100001C01D9241505040E0F70895F894FFCF75
:100C200000000000000014000000000000000000B0
:100C300000000000000000000000000000000000B4
:100C400000000000000000000000000000000000A4
:100C500000010507205F050000000000C618638042
:100C6000014A290000004A7DF59502C417471F017B
:100C7000632222320626155193058608000000885B
:100C8000082108028220848800805457090080903F
:100C90004F0800000060880000800F000000000086
:100CA0008C0100222202002EE63AA303C4104288DF
:100CB000032E4244C4072E4207A30388A9F411025D
:100CC0003F8407A3032E8617A3033F424408012E47
:100CD0004617A3032E460FA303C018600C00C018CC
:100CE0006088008888200802007CF001008220884B
:100CF00088002E424400012E425BAB0344C51F63B3
:100D0000042FC617E3032E8610A2032FC618E30391
:100D10003F8417C2073F841742002E861EA3073167
:100D2000C61F63048E10428803104218A303319536
:100D3000515204218410C20771D71A630471D61C62
:100D400063042EC618A3032FC61742002EC658935D
:100D5000052FC61763042E0607A3039F1042080140
:100D600031C618A30331C618150131C65AAB02317A
:100D70002AA26204312A4208011F2222C2072784C4
:100D800010C20120088220000E21849003444500F7
:100D90000000000000C00782200000000038E8A327
:100DA0000721B419E30300B810A20310DA1CA3074B
:100DB00000B8F883034C8A238400C0C7E8A103214C
:100DC000B41963040418428803083084920121A4F2
:100DD000324A02861042880300AC5A630400B419F8
:100DE000630400B818A30300BCF8420000D8EC214B
:100DF0000400B419420000B8E0E003421C212403BF
:100E000000C418B30500C418150100C45AAB020091
:100E10004445540400C4E8A103007C44C40788107E
:100E20004108028410420801821044880000888A28
:100E300000000340008003100380032000400020D6
:100E4000001000080004000200010380034003209A
:040E5000008003100B
:00000001FF
